:10FF00007EFF031A5086F0B7F404113D018619B73D
:10FF1000F4034FB7F4004CB7F4014CB7F40210CE21
:10FF2000E000BDFF39BD0343BD0393BD04CC8EFF8C
:10FF300049BD039F1600C920FECD000000001F8BA5
:10FF40001F011F021F031F0739496E697469616C25
:10FF5000697A696E6720C2B54C696E642E2E2E0ACE
:02FF60000D0092
:10FFF000FF00FF00FF00FF00FF00FF00FF00FF0009
:100000008E02FCBD039F8ED000108E000FBD03C278
:100010008E004CBD039F8E01EEBD039F8E00F6BD8A
:10002000039F8E0223BD039F8E0251BD039F8E024C
:100030007FBD039F8E02ADBD039F8E0172BD039FE6
:10004000BE0329BD039F8E02DBBD039FE29592E2B2
:100050009590E29590E29590E29590E29590E295E8
:1000600090E29590E29590E29590E29590E29590DD
:10007000E29590E29590E29590E29590E29590E27B
:100080009590E29590E29590E29590E29590E295B8
:1000900090E29590E29590E29590E29590E29590AD
:1000A000E29590E29590E29590E29590E29590E24B
:1000B0009590E29590E29590E29590E29590E29588
:1000C00090E29590E2959500E294822020202020F5
:1000D0002020202020202020202020202020202020
:1000E0002020202020202020202020202020202010
:1000F0002020E2948200E2959EE29590E29590E2C3
:100100009590E29590E29590E29590E29590E29537
:1001100090E29590E29590E29590E29590E295902C
:10012000E29590E29590E29590E29590E29590E2CA
:100130009590E29590E29590E29590E29590E29507
:1001400090E29590E29590E29590E29590E29590FC
:10015000E29590E29590E29590E29590E29590E29A
:100160009590E29590E29590E29590E29590E295D7
:10017000A100E29598E29590E29590E29590E29543
:1001800090E29590E29590E29590E29590E29590BC
:10019000E29590E29590E29590E29590E29590E25A
:1001A0009590E29590E29590E29590E29590E29597
:1001B00090E29590E29590E29590E29590E295908C
:1001C000E29590E29590E29590E29590E29590E22A
:1001D0009590E29590E29590E29590E29590E29567
:1001E00090E29590E29590E29590E2959B00E294E2
:1001F0008220202020C2BBC2BBC2BB20C2B54C693A
:100200006E642042494F53205574696C697479209B
:100210004D656E7520C2ABC2ABC2AB20202020E280
:10022000948200E2948220312E2052616D20746508
:100230007374207574696C697479202020202020E3
:1002400020202020202020202020202020E2948216
:1002500000E2948220322E2053657269616C207016
:100260006F72742074657374207574696C69747925
:100270002020202020202020202020E2948200E244
:10028000948220332E204D656D6F72792064756DD8
:1002900070207574696C69747920202020202020DA
:1002A000202020202020202020E2948200E294823E
:1002B00020342E204A6F797374696320706F7274D2
:1002C000732074657374207574696C697479202067
:1002D00020202020202020E29482002020507265DF
:1002E00073732061206E756D62657220746F206378
:1002F0006F6E74696E75652E2E2E2000C2B54C6926
:100300006E642042494F53205574696C697479209A
:100310004D656E75001C5B303B33363B34306D1CD5
:100320005B303B33393B34396D0D0A00E29482E295
:1003300095B1E29480E295B21C5B31441C5B481C91
:100340005B324A86BAB7F432B7F43A8620B7F43251
:10035000B7F43A8630B7F432B7F43A8640B7F4329D
:10036000B7F43A8601B7F430B7F4388693B7F4306F
:10037000B7F4388617B7F430B7F43886CCB7F43111
:10038000B7F4398680B7F4344FB7F435B7F43DB6D7
:10039000F43F3986052504B7F43239B7F43A3934D5
:1003A00006200AF6F431C40427F9B7F433A68026F0
:1003B000F2350639E7E2F6F431C40427F9B7F4332D
:1003C0003584108C000027101030121F161F618614
:1003D0000DBD03B4863E200DBE04137E040D301FF8
:1003E0001037612BE8BD03B4B6F431840127F9B6A8
:1003F000F43310372127D6817F27E3A780BD03B4CC
:10040000811B27C9810D26E08600A78439BD039F83
:100410007EFF373F696C6C6567616C20627566664C
:1004200065722073697A6520657863657074696F99
:100430006E00340244444444BD043D3502840F8AB6
:1004400030813A1025FF6D8B0716FF68810A25035E
:100450008B37398B3039A7E28630BD03B48678BD3F
:1004600003B4A6E0BD04323934068630BD03B48639
:1004700078BD03B41F10BD04321F98BD043286201E
:10048000BD03B43586860DBD03B4860ABD03B439F9
:10049000B7F436F7F437398A0848484848B7F4348F
:1004A000398608B7F43539B6F43E39B6F43F39BD6C
:1004B00004D581002703B7F43D39BD04D58604B7C0
:1004C000F43D39BD04D58602B7F43D39BD04D58667
:1004D00001B7F43D398600B7F43D39FDD82039FD28
:1004E000D82239FDD824394FB7F4034CB7F4004C67
:1004F000B7F4014CB7F4026E84A789F40039B7F45D
:100500000039B7F40139B7F40239B7F40339A689D1
:10051000F40039B6F40039B6F40139B6F40239B64C
:10052000F40339398EF412CC07B2E38439B6F413EC
:10053000840F39B6F41384E0444444444439B6F497
:1005400014841F39B6F41484E0444444444439B656
:10055000F41539B6F41639B6F41739867C1212122E
:100560004A810026F812121212121230828C0000F8
:1005700026E93939860039860039B6F410BD05837D
:1005800026F83B397FF4227FF4237FF42B7FF42C71
:10059000867FB7F42EB6F42E8A40B7F42E39B6F41F
:1005A0002EC640103698B7F42E398640B7F42D3950
:1005B000B6F42139B6F42188FF841F39B6F42088B7
:1005C000FF841F393B060F060F060F060F061206A3
:1005D0000F06100611060F060F060F060F060F0670
:1005E0000F060F060F860FBD05ED1A503948484813
:1005F00048B7F40439B6F404840F39B6F40444441B
:10060000444439BD05F5BE05C5486E967E05C43B1C
:100610003B3B3B34168600A780104A26FA3596BD30
:10062000065A1E10C4F01E10AFE38E0691BD039F44
:10063000AEE1BD0468C6108620BD03B4A680BD042B
:10064000325A26F38C0000270A1037212205BD04F8
:100650008520DF8E06CBBD039F3934128E0707BD80
:10066000039FBD0513BD04568E0723BD039FBD0523
:1006700017BD04568E0732BD039FBD051BBD045632
:100680008E0741BD039FBD051FBD0456BD048535C2
:1006900092202020202020202078302078312078BF
:1006A0003220783320783420783520783620783717
:1006B00020783820783920784120784220784320EB
:1006C00078442078452078460D0A000D0A2D2D2DFE
:1006D0002D2D2D2D2D2D2D2D2D2D2D2D2D2D2D2D4A
:1006E0002D2D2D2D2D2D2D2D2D2D2D2D2D2D2D2D3A
:1006F0002D2D2D2D2D2D2D2D2D2D2D2D2D2D2D2D2A
:100700002D2D2D2D0D0A0042616E6B2053657474E2
:10071000696E67730D0A2020202042616E6B2030C5
:100720003A20000D0A2020202042616E6B20313AD1
:1007300020000D0A2020202042616E6B20323A20DA
:10074000000D0A2020202042616E6B20333A2000E9
:00000001FF