:10FFF000FF00FF00FF00FF00FF00FF00FF00FF0009
:10FF0000113D011A508619B7F4034FB7F4004CB7EE
:10FF1000F4014CB7F40210CEE0008601B7F405BD41
:10FF2000F000BDF0508EFF2FBDF05C20F820FE49A0
:10FF30006E697469616C697A696E6720C2B54C69D3
:08FF40006E642E2E2E0A0D0046
:10F0000086BAB7F432B7F43A8620B7F432B7F43A96
:10F010008630B7F432B7F43A8640B7F432B7F43AF0
:10F020008601B7F430B7F4388693B7F430B7F438C4
:10F030008617B7F430B7F43886CCB7F431B7F43963
:10F040008680B7F4344FB7F435B7F43DB6F43F39A2
:10F0500086052504B7F43239B7F43A393406200A64
:10F06000F6F431C40427F9B7F433A68026F2350646
:10F0700039E7E2F6F431C40427F9B7F433358410E4
:10F080008C000027101030121F161F61860DBDF076
:10F0900071863E200DBEF0CD7EF0CA301F10376164
:10F0A0002BE8BDF071B6F431840127F9B6F43310C2
:10F0B000372127D6817F27E3A780BDF071811B27E9
:10F0C000C9810D26E08600A78439BDF05C3F696CDC
:10F0D0006C6567616C206275666665722073697A1B
:10F0E0006520657863657074696F6E00340244440E
:10F0F0004444BDF0F73502840F8A30813A1025FF71
:10F10000708B0716FF6B810A25038B37398B3039DB
:10F11000A7E28630BDF0718678BDF071A6E0BDF043
:10F12000EC3934068630BDF0718678BDF0711F1061
:10F13000BDF0EC1F98BDF0EC8620BDF071358686E1
:10F140000DBDF071860ABDF07139B7F436F7F437AA
:10F15000398A0848484848B7F434398608B7F4353E
:10F1600039B6F43E39B6F43F39BDF18F810027033B
:10F17000B7F43D39BDF18F8604B7F43D39BDF18F49
:10F180008602B7F43D39BDF18F8601B7F43D39866B
:10F1900000B7F43D39FDD82039FDD82239FDD824F7
:01F1A0003935
:00000001FF